{
  "_format": "hh-sol-artifact-1",
  "contractName": "AIDevInterface",
  "sourceName": "contracts/AIDevInterface.sol",
  "abi": [
    {
      "inputs": [
        {
          "internalType": "contract IERC20",
          "name": "_godToken",
          "type": "address"
        }
      ],
      "stateMutability": "nonpayable",
      "type": "constructor"
    },
    {
      "anonymous": false,
      "inputs": [
        {
          "indexed": true,
          "internalType": "uint256",
          "name": "taskId",
          "type": "uint256"
        },
        {
          "indexed": true,
          "internalType": "address",
          "name": "completer",
          "type": "address"
        }
      ],
      "name": "TaskCompleted",
      "type": "event"
    },
    {
      "anonymous": false,
      "inputs": [
        {
          "indexed": true,
          "internalType": "uint256",
          "name": "taskId",
          "type": "uint256"
        },
        {
          "indexed": false,
          "internalType": "string",
          "name": "description",
          "type": "string"
        },
        {
          "indexed": true,
          "internalType": "address",
          "name": "requester",
          "type": "address"
        },
        {
          "indexed": false,
          "internalType": "uint256",
          "name": "reward",
          "type": "uint256"
        }
      ],
      "name": "TaskCreated",
      "type": "event"
    },
    {
      "inputs": [
        {
          "internalType": "string",
          "name": "description",
          "type": "string"
        },
        {
          "internalType": "uint256",
          "name": "bountyAmount",
          "type": "uint256"
        }
      ],
      "name": "createTask",
      "outputs": [],
      "stateMutability": "nonpayable",
      "type": "function"
    },
    {
      "inputs": [],
      "name": "godToken",
      "outputs": [
        {
          "internalType": "contract IERC20",
          "name": "",
          "type": "address"
        }
      ],
      "stateMutability": "view",
      "type": "function"
    },
    {
      "inputs": [
        {
          "internalType": "uint256",
          "name": "taskId",
          "type": "uint256"
        }
      ],
      "name": "markCompleted",
      "outputs": [],
      "stateMutability": "nonpayable",
      "type": "function"
    },
    {
      "inputs": [
        {
          "internalType": "uint256",
          "name": "",
          "type": "uint256"
        }
      ],
      "name": "tasks",
      "outputs": [
        {
          "internalType": "string",
          "name": "description",
          "type": "string"
        },
        {
          "internalType": "address",
          "name": "requester",
          "type": "address"
        },
        {
          "internalType": "uint256",
          "name": "reward",
          "type": "uint256"
        },
        {
          "internalType": "bool",
          "name": "completed",
          "type": "bool"
        }
      ],
      "stateMutability": "view",
      "type": "function"
    }
  ],
  "bytecode": "0x60806040523480156200001157600080fd5b506040516200116d3803806200116d8339818101604052810190620000379190620000fd565b80600160006101000a81548173ffffffffffffffffffffffffffffffffffffffff021916908373ffffffffffffffffffffffffffffffffffffffff160217905550506200012f565b600080fd5b600073ffffffffffffffffffffffffffffffffffffffff82169050919050565b6000620000b18262000084565b9050919050565b6000620000c582620000a4565b9050919050565b620000d781620000b8565b8114620000e357600080fd5b50565b600081519050620000f781620000cc565b92915050565b6000602082840312156200011657620001156200007f565b5b60006200012684828501620000e6565b91505092915050565b61102e806200013f6000396000f3fe608060405234801561001057600080fd5b506004361061004c5760003560e01c806304fe2b34146100515780638d9776721461006d5780639c6e5ced146100a0578063cac5c512146100be575b600080fd5b61006b600480360381019061006691906107c0565b6100da565b005b6100876004803603810190610082919061081c565b61030f565b6040516100979493929190610933565b60405180910390f35b6100a8610404565b6040516100b591906109de565b60405180910390f35b6100d860048036038101906100d3919061081c565b61042a565b005b600160009054906101000a900473ffffffffffffffffffffffffffffffffffffffff1673ffffffffffffffffffffffffffffffffffffffff166323b872dd3330846040518463ffffffff1660e01b8152600401610139939291906109f9565b6020604051808303816000875af1158015610158573d6000803e3d6000fd5b505050506040513d601f19601f8201168201806040525081019061017c9190610a5c565b6101bb576040517f08c379a00000000000000000000000000000000000000000000000000000000081526004016101b290610ad5565b60405180910390fd5b600060405180608001604052808481526020013373ffffffffffffffffffffffffffffffffffffffff16815260200183815260200160001515815250908060018154018082558091505060019003906000526020600020906004020160009091909190915060008201518160000190816102359190610cf7565b5060208201518160010160006101000a81548173ffffffffffffffffffffffffffffffffffffffff021916908373ffffffffffffffffffffffffffffffffffffffff1602179055506040820151816002015560608201518160030160006101000a81548160ff02191690831515021790555050503373ffffffffffffffffffffffffffffffffffffffff1660016000805490506102d29190610df8565b7f4fd9515368c995a9e1ea8ad226f20427c8f4523a75c5b9481bdd7f358d8f666c8484604051610303929190610e2c565b60405180910390a35050565b6000818154811061031f57600080fd5b906000526020600020906004020160009150905080600001805461034290610b24565b80601f016020809104026020016040519081016040528092919081815260200182805461036e90610b24565b80156103bb5780601f10610390576101008083540402835291602001916103bb565b820191906000526020600020905b81548152906001019060200180831161039e57829003601f168201915b5050505050908060010160009054906101000a900473ffffffffffffffffffffffffffffffffffffffff16908060020154908060030160009054906101000a900460ff16905084565b600160009054906101000a900473ffffffffffffffffffffffffffffffffffffffff1681565b6000805490508110610471576040517f08c379a000000000000000000000000000000000000000000000000000000000815260040161046890610ea8565b60405180910390fd5b600080828154811061048657610485610ec8565b5b906000526020600020906004020190508060030160009054906101000a900460ff16156104e8576040517f08c379a00000000000000000000000000000000000000000000000000000000081526004016104df90610f43565b60405180910390fd5b60018160030160006101000a81548160ff021916908315150217905550600160009054906101000a900473ffffffffffffffffffffffffffffffffffffffff1673ffffffffffffffffffffffffffffffffffffffff1663a9059cbb3383600201546040518363ffffffff1660e01b8152600401610566929190610f63565b6020604051808303816000875af1158015610585573d6000803e3d6000fd5b505050506040513d601f19601f820116820180604052508101906105a99190610a5c565b6105e8576040517f08c379a00000000000000000000000000000000000000000000000000000000081526004016105df90610fd8565b60405180910390fd5b3373ffffffffffffffffffffffffffffffffffffffff16827fbb5889c77948badf90e8a5c73d55265e5f5d6e4837a79a78c5669691b897faed60405160405180910390a35050565b6000604051905090565b600080fd5b600080fd5b600080fd5b600080fd5b6000601f19601f8301169050919050565b7f4e487b7100000000000000000000000000000000000000000000000000000000600052604160045260246000fd5b6106978261064e565b810181811067ffffffffffffffff821117156106b6576106b561065f565b5b80604052505050565b60006106c9610630565b90506106d5828261068e565b919050565b600067ffffffffffffffff8211156106f5576106f461065f565b5b6106fe8261064e565b9050602081019050919050565b82818337600083830152505050565b600061072d610728846106da565b6106bf565b90508281526020810184848401111561074957610748610649565b5b61075484828561070b565b509392505050565b600082601f83011261077157610770610644565b5b813561078184826020860161071a565b91505092915050565b6000819050919050565b61079d8161078a565b81146107a857600080fd5b50565b6000813590506107ba81610794565b92915050565b600080604083850312156107d7576107d661063a565b5b600083013567ffffffffffffffff8111156107f5576107f461063f565b5b6108018582860161075c565b9250506020610812858286016107ab565b9150509250929050565b6000602082840312156108325761083161063a565b5b6000610840848285016107ab565b91505092915050565b600081519050919050565b600082825260208201905092915050565b60005b83811015610883578082015181840152602081019050610868565b60008484015250505050565b600061089a82610849565b6108a48185610854565b93506108b4818560208601610865565b6108bd8161064e565b840191505092915050565b600073ffffffffffffffffffffffffffffffffffffffff82169050919050565b60006108f3826108c8565b9050919050565b610903816108e8565b82525050565b6109128161078a565b82525050565b60008115159050919050565b61092d81610918565b82525050565b6000608082019050818103600083015261094d818761088f565b905061095c60208301866108fa565b6109696040830185610909565b6109766060830184610924565b95945050505050565b6000819050919050565b60006109a461099f61099a846108c8565b61097f565b6108c8565b9050919050565b60006109b682610989565b9050919050565b60006109c8826109ab565b9050919050565b6109d8816109bd565b82525050565b60006020820190506109f360008301846109cf565b92915050565b6000606082019050610a0e60008301866108fa565b610a1b60208301856108fa565b610a286040830184610909565b949350505050565b610a3981610918565b8114610a4457600080fd5b50565b600081519050610a5681610a30565b92915050565b600060208284031215610a7257610a7161063a565b5b6000610a8084828501610a47565b91505092915050565b7f546f6b656e207472616e73666572206661696c65640000000000000000000000600082015250565b6000610abf601583610854565b9150610aca82610a89565b602082019050919050565b60006020820190508181036000830152610aee81610ab2565b9050919050565b7f4e487b7100000000000000000000000000000000000000000000000000000000600052602260045260246000fd5b60006002820490506001821680610b3c57607f821691505b602082108103610b4f57610b4e610af5565b5b50919050565b60008190508160005260206000209050919050565b60006020601f8301049050919050565b600082821b905092915050565b600060088302610bb77fffffffffffffffffffffffffffffffffffffffffffffffffffffffffffffffff82610b7a565b610bc18683610b7a565b95508019841693508086168417925050509392505050565b6000610bf4610bef610bea8461078a565b61097f565b61078a565b9050919050565b6000819050919050565b610c0e83610bd9565b610c22610c1a82610bfb565b848454610b87565b825550505050565b600090565b610c37610c2a565b610c42818484610c05565b505050565b5b81811015610c6657610c5b600082610c2f565b600181019050610c48565b5050565b601f821115610cab57610c7c81610b55565b610c8584610b6a565b81016020851015610c94578190505b610ca8610ca085610b6a565b830182610c47565b50505b505050565b600082821c905092915050565b6000610cce60001984600802610cb0565b1980831691505092915050565b6000610ce78383610cbd565b9150826002028217905092915050565b610d0082610849565b67ffffffffffffffff811115610d1957610d1861065f565b5b610d238254610b24565b610d2e828285610c6a565b600060209050601f831160018114610d615760008415610d4f578287015190505b610d598582610cdb565b865550610dc1565b601f198416610d6f86610b55565b60005b82811015610d9757848901518255600182019150602085019450602081019050610d72565b86831015610db45784890151610db0601f891682610cbd565b8355505b6001600288020188555050505b505050505050565b7f4e487b7100000000000000000000000000000000000000000000000000000000600052601160045260246000fd5b6000610e038261078a565b9150610e0e8361078a565b9250828203905081811115610e2657610e25610dc9565b5b92915050565b60006040820190508181036000830152610e46818561088f565b9050610e556020830184610909565b9392505050565b7f496e76616c6964207461736b2069640000000000000000000000000000000000600082015250565b6000610e92600f83610854565b9150610e9d82610e5c565b602082019050919050565b60006020820190508181036000830152610ec181610e85565b9050919050565b7f4e487b7100000000000000000000000000000000000000000000000000000000600052603260045260246000fd5b7f416c726561647920636f6d706c65746564000000000000000000000000000000600082015250565b6000610f2d601183610854565b9150610f3882610ef7565b602082019050919050565b60006020820190508181036000830152610f5c81610f20565b9050919050565b6000604082019050610f7860008301856108fa565b610f856020830184610909565b9392505050565b7f426f756e7479207472616e73666572206661696c656400000000000000000000600082015250565b6000610fc2601683610854565b9150610fcd82610f8c565b602082019050919050565b60006020820190508181036000830152610ff181610fb5565b905091905056fea26469706673582212209e4f6e19a831f8f6c889782174449b3773cc1a248227a37e86fb0bae63a7f4ae64736f6c63430008140033",
  "linkReferences": {},
  "deployedLinkReferences": {}
}