{
  "_format": "hh-sol-artifact-1",
  "contractName": "Identity",
  "sourceName": "contracts/Identity.sol",
  "abi": [
    {
      "anonymous": false,
      "inputs": [
        {
          "indexed": true,
          "internalType": "address",
          "name": "previousOwner",
          "type": "address"
        },
        {
          "indexed": true,
          "internalType": "address",
          "name": "newOwner",
          "type": "address"
        }
      ],
      "name": "OwnershipTransferred",
      "type": "event"
    },
    {
      "anonymous": false,
      "inputs": [
        {
          "indexed": true,
          "internalType": "address",
          "name": "user",
          "type": "address"
        },
        {
          "indexed": false,
          "internalType": "string",
          "name": "handle",
          "type": "string"
        },
        {
          "indexed": false,
          "internalType": "string",
          "name": "metadataURI",
          "type": "string"
        }
      ],
      "name": "ProfileCreated",
      "type": "event"
    },
    {
      "anonymous": false,
      "inputs": [
        {
          "indexed": true,
          "internalType": "address",
          "name": "user",
          "type": "address"
        }
      ],
      "name": "ProfileVerified",
      "type": "event"
    },
    {
      "inputs": [
        {
          "internalType": "string",
          "name": "handle",
          "type": "string"
        },
        {
          "internalType": "string",
          "name": "metadataURI",
          "type": "string"
        }
      ],
      "name": "createProfile",
      "outputs": [],
      "stateMutability": "nonpayable",
      "type": "function"
    },
    {
      "inputs": [],
      "name": "owner",
      "outputs": [
        {
          "internalType": "address",
          "name": "",
          "type": "address"
        }
      ],
      "stateMutability": "view",
      "type": "function"
    },
    {
      "inputs": [
        {
          "internalType": "address",
          "name": "",
          "type": "address"
        }
      ],
      "name": "profiles",
      "outputs": [
        {
          "internalType": "string",
          "name": "handle",
          "type": "string"
        },
        {
          "internalType": "string",
          "name": "metadataURI",
          "type": "string"
        },
        {
          "internalType": "bool",
          "name": "verified",
          "type": "bool"
        }
      ],
      "stateMutability": "view",
      "type": "function"
    },
    {
      "inputs": [],
      "name": "renounceOwnership",
      "outputs": [],
      "stateMutability": "nonpayable",
      "type": "function"
    },
    {
      "inputs": [
        {
          "internalType": "address",
          "name": "newOwner",
          "type": "address"
        }
      ],
      "name": "transferOwnership",
      "outputs": [],
      "stateMutability": "nonpayable",
      "type": "function"
    },
    {
      "inputs": [
        {
          "internalType": "address",
          "name": "user",
          "type": "address"
        }
      ],
      "name": "verifyProfile",
      "outputs": [],
      "stateMutability": "nonpayable",
      "type": "function"
    }
  ],
  "bytecode": "0x608060405234801561001057600080fd5b5061002d61002261003260201b60201c565b61003a60201b60201c565b6100fe565b600033905090565b60008060009054906101000a900473ffffffffffffffffffffffffffffffffffffffff169050816000806101000a81548173ffffffffffffffffffffffffffffffffffffffff021916908373ffffffffffffffffffffffffffffffffffffffff1602179055508173ffffffffffffffffffffffffffffffffffffffff168173ffffffffffffffffffffffffffffffffffffffff167f8be0079c531659141344cd1fd0a4f28419497f9722a3daafe3b4186f6b6457e060405160405180910390a35050565b610dc78061010d6000396000f3fe608060405234801561001057600080fd5b50600436106100625760003560e01c8063715018a6146100675780638da5cb5b14610071578063ba1feb8a1461008f578063bbe15627146100ab578063dfaef659146100dd578063f2fde38b146100f9575b600080fd5b61006f610115565b005b610079610129565b604051610086919061064f565b60405180910390f35b6100a960048036038101906100a491906107c4565b610152565b005b6100c560048036038101906100c09190610868565b610252565b6040516100d49392919061092f565b60405180910390f35b6100f760048036038101906100f29190610868565b610399565b005b610113600480360381019061010e9190610868565b610441565b005b61011d6104c4565b6101276000610542565b565b60008060009054906101000a900473ffffffffffffffffffffffffffffffffffffffff16905090565b604051806060016040528083815260200182815260200160001515815250600160003373ffffffffffffffffffffffffffffffffffffffff1673ffffffffffffffffffffffffffffffffffffffff16815260200190815260200160002060008201518160000190816101c49190610b8a565b5060208201518160010190816101da9190610b8a565b5060408201518160020160006101000a81548160ff0219169083151502179055509050503373ffffffffffffffffffffffffffffffffffffffff167f6b4494367229a908b0585b361e2871a21f8eb4cd852c02f55c9e06989f4bb2aa8383604051610246929190610c5c565b60405180910390a25050565b6001602052806000526040600020600091509050806000018054610275906109a3565b80601f01602080910402602001604051908101604052809291908181526020018280546102a1906109a3565b80156102ee5780601f106102c3576101008083540402835291602001916102ee565b820191906000526020600020905b8154815290600101906020018083116102d157829003601f168201915b505050505090806001018054610303906109a3565b80601f016020809104026020016040519081016040528092919081815260200182805461032f906109a3565b801561037c5780601f106103515761010080835404028352916020019161037c565b820191906000526020600020905b81548152906001019060200180831161035f57829003601f168201915b5050505050908060020160009054906101000a900460ff16905083565b6103a16104c4565b60018060008373ffffffffffffffffffffffffffffffffffffffff1673ffffffffffffffffffffffffffffffffffffffff16815260200190815260200160002060020160006101000a81548160ff0219169083151502179055508073ffffffffffffffffffffffffffffffffffffffff167ff5b72f6f3bcef5d31717c3965dcb7239629b10b6ad3bd9b99ec3ca4dced745e460405160405180910390a250565b6104496104c4565b600073ffffffffffffffffffffffffffffffffffffffff168173ffffffffffffffffffffffffffffffffffffffff16036104b8576040517f08c379a00000000000000000000000000000000000000000000000000000000081526004016104af90610d05565b60405180910390fd5b6104c181610542565b50565b6104cc610606565b73ffffffffffffffffffffffffffffffffffffffff166104ea610129565b73ffffffffffffffffffffffffffffffffffffffff1614610540576040517f08c379a000000000000000000000000000000000000000000000000000000000815260040161053790610d71565b60405180910390fd5b565b60008060009054906101000a900473ffffffffffffffffffffffffffffffffffffffff169050816000806101000a81548173ffffffffffffffffffffffffffffffffffffffff021916908373ffffffffffffffffffffffffffffffffffffffff1602179055508173ffffffffffffffffffffffffffffffffffffffff168173ffffffffffffffffffffffffffffffffffffffff167f8be0079c531659141344cd1fd0a4f28419497f9722a3daafe3b4186f6b6457e060405160405180910390a35050565b600033905090565b600073ffffffffffffffffffffffffffffffffffffffff82169050919050565b60006106398261060e565b9050919050565b6106498161062e565b82525050565b60006020820190506106646000830184610640565b92915050565b6000604051905090565b600080fd5b600080fd5b600080fd5b600080fd5b6000601f19601f8301169050919050565b7f4e487b7100000000000000000000000000000000000000000000000000000000600052604160045260246000fd5b6106d182610688565b810181811067ffffffffffffffff821117156106f0576106ef610699565b5b80604052505050565b600061070361066a565b905061070f82826106c8565b919050565b600067ffffffffffffffff82111561072f5761072e610699565b5b61073882610688565b9050602081019050919050565b82818337600083830152505050565b600061076761076284610714565b6106f9565b90508281526020810184848401111561078357610782610683565b5b61078e848285610745565b509392505050565b600082601f8301126107ab576107aa61067e565b5b81356107bb848260208601610754565b91505092915050565b600080604083850312156107db576107da610674565b5b600083013567ffffffffffffffff8111156107f9576107f8610679565b5b61080585828601610796565b925050602083013567ffffffffffffffff81111561082657610825610679565b5b61083285828601610796565b9150509250929050565b6108458161062e565b811461085057600080fd5b50565b6000813590506108628161083c565b92915050565b60006020828403121561087e5761087d610674565b5b600061088c84828501610853565b91505092915050565b600081519050919050565b600082825260208201905092915050565b60005b838110156108cf5780820151818401526020810190506108b4565b60008484015250505050565b60006108e682610895565b6108f081856108a0565b93506109008185602086016108b1565b61090981610688565b840191505092915050565b60008115159050919050565b61092981610914565b82525050565b6000606082019050818103600083015261094981866108db565b9050818103602083015261095d81856108db565b905061096c6040830184610920565b949350505050565b7f4e487b7100000000000000000000000000000000000000000000000000000000600052602260045260246000fd5b600060028204905060018216806109bb57607f821691505b6020821081036109ce576109cd610974565b5b50919050565b60008190508160005260206000209050919050565b60006020601f8301049050919050565b600082821b905092915050565b600060088302610a367fffffffffffffffffffffffffffffffffffffffffffffffffffffffffffffffff826109f9565b610a4086836109f9565b95508019841693508086168417925050509392505050565b6000819050919050565b6000819050919050565b6000610a87610a82610a7d84610a58565b610a62565b610a58565b9050919050565b6000819050919050565b610aa183610a6c565b610ab5610aad82610a8e565b848454610a06565b825550505050565b600090565b610aca610abd565b610ad5818484610a98565b505050565b5b81811015610af957610aee600082610ac2565b600181019050610adb565b5050565b601f821115610b3e57610b0f816109d4565b610b18846109e9565b81016020851015610b27578190505b610b3b610b33856109e9565b830182610ada565b50505b505050565b600082821c905092915050565b6000610b6160001984600802610b43565b1980831691505092915050565b6000610b7a8383610b50565b9150826002028217905092915050565b610b9382610895565b67ffffffffffffffff811115610bac57610bab610699565b5b610bb682546109a3565b610bc1828285610afd565b600060209050601f831160018114610bf45760008415610be2578287015190505b610bec8582610b6e565b865550610c54565b601f198416610c02866109d4565b60005b82811015610c2a57848901518255600182019150602085019450602081019050610c05565b86831015610c475784890151610c43601f891682610b50565b8355505b6001600288020188555050505b505050505050565b60006040820190508181036000830152610c7681856108db565b90508181036020830152610c8a81846108db565b90509392505050565b7f4f776e61626c653a206e6577206f776e657220697320746865207a65726f206160008201527f6464726573730000000000000000000000000000000000000000000000000000602082015250565b6000610cef6026836108a0565b9150610cfa82610c93565b604082019050919050565b60006020820190508181036000830152610d1e81610ce2565b9050919050565b7f4f776e61626c653a2063616c6c6572206973206e6f7420746865206f776e6572600082015250565b6000610d5b6020836108a0565b9150610d6682610d25565b602082019050919050565b60006020820190508181036000830152610d8a81610d4e565b905091905056fea26469706673582212203162891a740ae580deda0dca11eedc46d1c209ad15be3868630363bc94168b2264736f6c63430008140033",
  "linkReferences": {},
  "deployedLinkReferences": {}
}