{
  "_format": "hh-sol-artifact-1",
  "contractName": "Governance",
  "sourceName": "contracts/Governance.sol",
  "abi": [
    {
      "anonymous": false,
      "inputs": [
        {
          "indexed": false,
          "internalType": "uint256",
          "name": "proposalId",
          "type": "uint256"
        },
        {
          "indexed": false,
          "internalType": "string",
          "name": "description",
          "type": "string"
        }
      ],
      "name": "ProposalCreated",
      "type": "event"
    },
    {
      "anonymous": false,
      "inputs": [
        {
          "indexed": false,
          "internalType": "uint256",
          "name": "proposalId",
          "type": "uint256"
        }
      ],
      "name": "ProposalExecuted",
      "type": "event"
    },
    {
      "anonymous": false,
      "inputs": [
        {
          "indexed": false,
          "internalType": "uint256",
          "name": "proposalId",
          "type": "uint256"
        },
        {
          "indexed": false,
          "internalType": "address",
          "name": "voter",
          "type": "address"
        }
      ],
      "name": "Voted",
      "type": "event"
    },
    {
      "inputs": [
        {
          "internalType": "string",
          "name": "description",
          "type": "string"
        }
      ],
      "name": "createProposal",
      "outputs": [],
      "stateMutability": "nonpayable",
      "type": "function"
    },
    {
      "inputs": [
        {
          "internalType": "uint256",
          "name": "proposalId",
          "type": "uint256"
        }
      ],
      "name": "executeProposal",
      "outputs": [],
      "stateMutability": "nonpayable",
      "type": "function"
    },
    {
      "inputs": [
        {
          "internalType": "uint256",
          "name": "",
          "type": "uint256"
        }
      ],
      "name": "proposals",
      "outputs": [
        {
          "internalType": "string",
          "name": "description",
          "type": "string"
        },
        {
          "internalType": "uint256",
          "name": "voteCount",
          "type": "uint256"
        },
        {
          "internalType": "bool",
          "name": "executed",
          "type": "bool"
        }
      ],
      "stateMutability": "view",
      "type": "function"
    },
    {
      "inputs": [
        {
          "internalType": "uint256",
          "name": "proposalId",
          "type": "uint256"
        }
      ],
      "name": "vote",
      "outputs": [],
      "stateMutability": "nonpayable",
      "type": "function"
    },
    {
      "inputs": [
        {
          "internalType": "address",
          "name": "",
          "type": "address"
        },
        {
          "internalType": "uint256",
          "name": "",
          "type": "uint256"
        }
      ],
      "name": "votes",
      "outputs": [
        {
          "internalType": "bool",
          "name": "",
          "type": "bool"
        }
      ],
      "stateMutability": "view",
      "type": "function"
    }
  ],
  "bytecode": "0x608060405234801561001057600080fd5b50610fd2806100206000396000f3fe608060405234801561001057600080fd5b50600436106100575760003560e01c80630121b93f1461005c578063013cf08b146100785780630d61b519146100aa57806349c2a1a6146100c65780639f2524ee146100e2575b600080fd5b61007660048036038101906100719190610655565b610112565b005b610092600480360381019061008d9190610655565b6102d6565b6040516100a19392919061073c565b60405180910390f35b6100c460048036038101906100bf9190610655565b6103a5565b005b6100e060048036038101906100db91906108af565b610503565b005b6100fc60048036038101906100f79190610956565b6105dc565b6040516101099190610996565b60405180910390f35b6000805490508110610159576040517f08c379a0000000000000000000000000000000000000000000000000000000008152600401610150906109fd565b60405180910390fd5b600160003373ffffffffffffffffffffffffffffffffffffffff1673ffffffffffffffffffffffffffffffffffffffff168152602001908152602001600020600082815260200190815260200160002060009054906101000a900460ff16156101f7576040517f08c379a00000000000000000000000000000000000000000000000000000000081526004016101ee90610a69565b60405180910390fd5b6000818154811061020b5761020a610a89565b5b9060005260206000209060030201600101600081548092919061022d90610ae7565b919050555060018060003373ffffffffffffffffffffffffffffffffffffffff1673ffffffffffffffffffffffffffffffffffffffff168152602001908152602001600020600083815260200190815260200160002060006101000a81548160ff0219169083151502179055507f030b0f8dcd86a031eddb071f91882edeac8173663ba775713b677b42b51be44b81336040516102cb929190610b3e565b60405180910390a150565b600081815481106102e657600080fd5b906000526020600020906003020160009150905080600001805461030990610b96565b80601f016020809104026020016040519081016040528092919081815260200182805461033590610b96565b80156103825780601f1061035757610100808354040283529160200191610382565b820191906000526020600020905b81548152906001019060200180831161036557829003601f168201915b5050505050908060010154908060020160009054906101000a900460ff16905083565b60008054905081106103ec576040517f08c379a00000000000000000000000000000000000000000000000000000000081526004016103e3906109fd565b60405180910390fd5b600080828154811061040157610400610a89565b5b906000526020600020906003020190508060020160009054906101000a900460ff1615610463576040517f08c379a000000000000000000000000000000000000000000000000000000000815260040161045a90610c13565b60405180910390fd5b6003816001015410156104ab576040517f08c379a00000000000000000000000000000000000000000000000000000000081526004016104a290610c7f565b60405180910390fd5b60018160020160006101000a81548160ff0219169083151502179055507f712ae1383f79ac853f8d882153778e0260ef8f03b504e2866e0593e04d2b291f826040516104f79190610c9f565b60405180910390a15050565b600060405180606001604052808381526020016000815260200160001515815250908060018154018082558091505060019003906000526020600020906003020160009091909190915060008201518160000190816105629190610e66565b506020820151816001015560408201518160020160006101000a81548160ff02191690831515021790555050507f9c770c289ab5bf7e57cb1d23c8ceae993aea46eb64847072fd3d78ca60d3e43260016000805490506105c29190610f38565b826040516105d1929190610f6c565b60405180910390a150565b60016020528160005260406000206020528060005260406000206000915091509054906101000a900460ff1681565b6000604051905090565b600080fd5b600080fd5b6000819050919050565b6106328161061f565b811461063d57600080fd5b50565b60008135905061064f81610629565b92915050565b60006020828403121561066b5761066a610615565b5b600061067984828501610640565b91505092915050565b600081519050919050565b600082825260208201905092915050565b60005b838110156106bc5780820151818401526020810190506106a1565b60008484015250505050565b6000601f19601f8301169050919050565b60006106e482610682565b6106ee818561068d565b93506106fe81856020860161069e565b610707816106c8565b840191505092915050565b61071b8161061f565b82525050565b60008115159050919050565b61073681610721565b82525050565b6000606082019050818103600083015261075681866106d9565b90506107656020830185610712565b610772604083018461072d565b949350505050565b600080fd5b600080fd5b7f4e487b7100000000000000000000000000000000000000000000000000000000600052604160045260246000fd5b6107bc826106c8565b810181811067ffffffffffffffff821117156107db576107da610784565b5b80604052505050565b60006107ee61060b565b90506107fa82826107b3565b919050565b600067ffffffffffffffff82111561081a57610819610784565b5b610823826106c8565b9050602081019050919050565b82818337600083830152505050565b600061085261084d846107ff565b6107e4565b90508281526020810184848401111561086e5761086d61077f565b5b610879848285610830565b509392505050565b600082601f8301126108965761089561077a565b5b81356108a684826020860161083f565b91505092915050565b6000602082840312156108c5576108c4610615565b5b600082013567ffffffffffffffff8111156108e3576108e261061a565b5b6108ef84828501610881565b91505092915050565b600073ffffffffffffffffffffffffffffffffffffffff82169050919050565b6000610923826108f8565b9050919050565b61093381610918565b811461093e57600080fd5b50565b6000813590506109508161092a565b92915050565b6000806040838503121561096d5761096c610615565b5b600061097b85828601610941565b925050602061098c85828601610640565b9150509250929050565b60006020820190506109ab600083018461072d565b92915050565b7f50726f706f73616c20646f6573206e6f74206578697374000000000000000000600082015250565b60006109e760178361068d565b91506109f2826109b1565b602082019050919050565b60006020820190508181036000830152610a16816109da565b9050919050565b7f416c726561647920766f74656400000000000000000000000000000000000000600082015250565b6000610a53600d8361068d565b9150610a5e82610a1d565b602082019050919050565b60006020820190508181036000830152610a8281610a46565b9050919050565b7f4e487b7100000000000000000000000000000000000000000000000000000000600052603260045260246000fd5b7f4e487b7100000000000000000000000000000000000000000000000000000000600052601160045260246000fd5b6000610af28261061f565b91507fffffffffffffffffffffffffffffffffffffffffffffffffffffffffffffffff8203610b2457610b23610ab8565b5b600182019050919050565b610b3881610918565b82525050565b6000604082019050610b536000830185610712565b610b606020830184610b2f565b9392505050565b7f4e487b7100000000000000000000000000000000000000000000000000000000600052602260045260246000fd5b60006002820490506001821680610bae57607f821691505b602082108103610bc157610bc0610b67565b5b50919050565b7f416c726561647920657865637574656400000000000000000000000000000000600082015250565b6000610bfd60108361068d565b9150610c0882610bc7565b602082019050919050565b60006020820190508181036000830152610c2c81610bf0565b9050919050565b7f4e6f7420656e6f75676820766f74657300000000000000000000000000000000600082015250565b6000610c6960108361068d565b9150610c7482610c33565b602082019050919050565b60006020820190508181036000830152610c9881610c5c565b9050919050565b6000602082019050610cb46000830184610712565b92915050565b60008190508160005260206000209050919050565b60006020601f8301049050919050565b600082821b905092915050565b600060088302610d1c7fffffffffffffffffffffffffffffffffffffffffffffffffffffffffffffffff82610cdf565b610d268683610cdf565b95508019841693508086168417925050509392505050565b6000819050919050565b6000610d63610d5e610d598461061f565b610d3e565b61061f565b9050919050565b6000819050919050565b610d7d83610d48565b610d91610d8982610d6a565b848454610cec565b825550505050565b600090565b610da6610d99565b610db1818484610d74565b505050565b5b81811015610dd557610dca600082610d9e565b600181019050610db7565b5050565b601f821115610e1a57610deb81610cba565b610df484610ccf565b81016020851015610e03578190505b610e17610e0f85610ccf565b830182610db6565b50505b505050565b600082821c905092915050565b6000610e3d60001984600802610e1f565b1980831691505092915050565b6000610e568383610e2c565b9150826002028217905092915050565b610e6f82610682565b67ffffffffffffffff811115610e8857610e87610784565b5b610e928254610b96565b610e9d828285610dd9565b600060209050601f831160018114610ed05760008415610ebe578287015190505b610ec88582610e4a565b865550610f30565b601f198416610ede86610cba565b60005b82811015610f0657848901518255600182019150602085019450602081019050610ee1565b86831015610f235784890151610f1f601f891682610e2c565b8355505b6001600288020188555050505b505050505050565b6000610f438261061f565b9150610f4e8361061f565b9250828203905081811115610f6657610f65610ab8565b5b92915050565b6000604082019050610f816000830185610712565b8181036020830152610f9381846106d9565b9050939250505056fea26469706673582212207cd144531c73c33fa57ff063e90aec1870a6b4f00706f44b741e671142932e8a64736f6c63430008140033",
  "linkReferences": {},
  "deployedLinkReferences": {}
}