{
  "_format": "hh-sol-artifact-1",
  "contractName": "GodToken",
  "sourceName": "contracts/GodToken.sol",
  "abi": [
    {
      "inputs": [],
      "stateMutability": "nonpayable",
      "type": "constructor"
    },
    {
      "anonymous": false,
      "inputs": [
        {
          "indexed": false,
          "internalType": "address",
          "name": "previousAdmin",
          "type": "address"
        },
        {
          "indexed": false,
          "internalType": "address",
          "name": "newAdmin",
          "type": "address"
        }
      ],
      "name": "AdminChanged",
      "type": "event"
    },
    {
      "anonymous": false,
      "inputs": [
        {
          "indexed": true,
          "internalType": "address",
          "name": "owner",
          "type": "address"
        },
        {
          "indexed": true,
          "internalType": "address",
          "name": "spender",
          "type": "address"
        },
        {
          "indexed": false,
          "internalType": "uint256",
          "name": "value",
          "type": "uint256"
        }
      ],
      "name": "Approval",
      "type": "event"
    },
    {
      "anonymous": false,
      "inputs": [
        {
          "indexed": true,
          "internalType": "address",
          "name": "beacon",
          "type": "address"
        }
      ],
      "name": "BeaconUpgraded",
      "type": "event"
    },
    {
      "anonymous": false,
      "inputs": [
        {
          "indexed": false,
          "internalType": "uint8",
          "name": "version",
          "type": "uint8"
        }
      ],
      "name": "Initialized",
      "type": "event"
    },
    {
      "anonymous": false,
      "inputs": [
        {
          "indexed": true,
          "internalType": "address",
          "name": "previousOwner",
          "type": "address"
        },
        {
          "indexed": true,
          "internalType": "address",
          "name": "newOwner",
          "type": "address"
        }
      ],
      "name": "OwnershipTransferred",
      "type": "event"
    },
    {
      "anonymous": false,
      "inputs": [
        {
          "indexed": true,
          "internalType": "address",
          "name": "from",
          "type": "address"
        },
        {
          "indexed": true,
          "internalType": "address",
          "name": "to",
          "type": "address"
        },
        {
          "indexed": false,
          "internalType": "uint256",
          "name": "value",
          "type": "uint256"
        }
      ],
      "name": "Transfer",
      "type": "event"
    },
    {
      "anonymous": false,
      "inputs": [
        {
          "indexed": true,
          "internalType": "address",
          "name": "implementation",
          "type": "address"
        }
      ],
      "name": "Upgraded",
      "type": "event"
    },
    {
      "inputs": [
        {
          "internalType": "address",
          "name": "owner",
          "type": "address"
        },
        {
          "internalType": "address",
          "name": "spender",
          "type": "address"
        }
      ],
      "name": "allowance",
      "outputs": [
        {
          "internalType": "uint256",
          "name": "",
          "type": "uint256"
        }
      ],
      "stateMutability": "view",
      "type": "function"
    },
    {
      "inputs": [
        {
          "internalType": "address",
          "name": "spender",
          "type": "address"
        },
        {
          "internalType": "uint256",
          "name": "amount",
          "type": "uint256"
        }
      ],
      "name": "approve",
      "outputs": [
        {
          "internalType": "bool",
          "name": "",
          "type": "bool"
        }
      ],
      "stateMutability": "nonpayable",
      "type": "function"
    },
    {
      "inputs": [
        {
          "internalType": "address",
          "name": "account",
          "type": "address"
        }
      ],
      "name": "balanceOf",
      "outputs": [
        {
          "internalType": "uint256",
          "name": "",
          "type": "uint256"
        }
      ],
      "stateMutability": "view",
      "type": "function"
    },
    {
      "inputs": [],
      "name": "decimals",
      "outputs": [
        {
          "internalType": "uint8",
          "name": "",
          "type": "uint8"
        }
      ],
      "stateMutability": "view",
      "type": "function"
    },
    {
      "inputs": [
        {
          "internalType": "address",
          "name": "spender",
          "type": "address"
        },
        {
          "internalType": "uint256",
          "name": "subtractedValue",
          "type": "uint256"
        }
      ],
      "name": "decreaseAllowance",
      "outputs": [
        {
          "internalType": "bool",
          "name": "",
          "type": "bool"
        }
      ],
      "stateMutability": "nonpayable",
      "type": "function"
    },
    {
      "inputs": [
        {
          "internalType": "address",
          "name": "spender",
          "type": "address"
        },
        {
          "internalType": "uint256",
          "name": "addedValue",
          "type": "uint256"
        }
      ],
      "name": "increaseAllowance",
      "outputs": [
        {
          "internalType": "bool",
          "name": "",
          "type": "bool"
        }
      ],
      "stateMutability": "nonpayable",
      "type": "function"
    },
    {
      "inputs": [],
      "name": "initialize",
      "outputs": [],
      "stateMutability": "nonpayable",
      "type": "function"
    },
    {
      "inputs": [
        {
          "internalType": "address",
          "name": "to",
          "type": "address"
        },
        {
          "internalType": "uint256",
          "name": "amount",
          "type": "uint256"
        }
      ],
      "name": "mint",
      "outputs": [],
      "stateMutability": "nonpayable",
      "type": "function"
    },
    {
      "inputs": [],
      "name": "name",
      "outputs": [
        {
          "internalType": "string",
          "name": "",
          "type": "string"
        }
      ],
      "stateMutability": "view",
      "type": "function"
    },
    {
      "inputs": [],
      "name": "owner",
      "outputs": [
        {
          "internalType": "address",
          "name": "",
          "type": "address"
        }
      ],
      "stateMutability": "view",
      "type": "function"
    },
    {
      "inputs": [],
      "name": "proxiableUUID",
      "outputs": [
        {
          "internalType": "bytes32",
          "name": "",
          "type": "bytes32"
        }
      ],
      "stateMutability": "view",
      "type": "function"
    },
    {
      "inputs": [],
      "name": "renounceOwnership",
      "outputs": [],
      "stateMutability": "nonpayable",
      "type": "function"
    },
    {
      "inputs": [],
      "name": "symbol",
      "outputs": [
        {
          "internalType": "string",
          "name": "",
          "type": "string"
        }
      ],
      "stateMutability": "view",
      "type": "function"
    },
    {
      "inputs": [],
      "name": "totalSupply",
      "outputs": [
        {
          "internalType": "uint256",
          "name": "",
          "type": "uint256"
        }
      ],
      "stateMutability": "view",
      "type": "function"
    },
    {
      "inputs": [
        {
          "internalType": "address",
          "name": "to",
          "type": "address"
        },
        {
          "internalType": "uint256",
          "name": "amount",
          "type": "uint256"
        }
      ],
      "name": "transfer",
      "outputs": [
        {
          "internalType": "bool",
          "name": "",
          "type": "bool"
        }
      ],
      "stateMutability": "nonpayable",
      "type": "function"
    },
    {
      "inputs": [
        {
          "internalType": "address",
          "name": "from",
          "type": "address"
        },
        {
          "internalType": "address",
          "name": "to",
          "type": "address"
        },
        {
          "internalType": "uint256",
          "name": "amount",
          "type": "uint256"
        }
      ],
      "name": "transferFrom",
      "outputs": [
        {
          "internalType": "bool",
          "name": "",
          "type": "bool"
        }
      ],
      "stateMutability": "nonpayable",
      "type": "function"
    },
    {
      "inputs": [
        {
          "internalType": "address",
          "name": "newOwner",
          "type": "address"
        }
      ],
      "name": "transferOwnership",
      "outputs": [],
      "stateMutability": "nonpayable",
      "type": "function"
    },
    {
      "inputs": [
        {
          "internalType": "address",
          "name": "newImplementation",
          "type": "address"
        }
      ],
      "name": "upgradeTo",
      "outputs": [],
      "stateMutability": "nonpayable",
      "type": "function"
    },
    {
      "inputs": [
        {
          "internalType": "address",
          "name": "newImplementation",
          "type": "address"
        },
        {
          "internalType": "bytes",
          "name": "data",
          "type": "bytes"
        }
      ],
      "name": "upgradeToAndCall",
      "outputs": [],
      "stateMutability": "payable",
      "type": "function"
    }
  ],
  "bytecode": "0x60a06040523073ffffffffffffffffffffffffffffffffffffffff1660809073ffffffffffffffffffffffffffffffffffffffff168152503480156200004457600080fd5b50620000556200005b60201b60201c565b62000205565b600060019054906101000a900460ff1615620000ae576040517f08c379a0000000000000000000000000000000000000000000000000000000008152600401620000a590620001a8565b60405180910390fd5b60ff801660008054906101000a900460ff1660ff16146200011f5760ff6000806101000a81548160ff021916908360ff1602179055507f7f26b83ff96e1f2b6a682f133852f6798a09c465da95921460cefb384740249860ff604051620001169190620001e8565b60405180910390a15b565b600082825260208201905092915050565b7f496e697469616c697a61626c653a20636f6e747261637420697320696e69746960008201527f616c697a696e6700000000000000000000000000000000000000000000000000602082015250565b60006200019060278362000121565b91506200019d8262000132565b604082019050919050565b60006020820190508181036000830152620001c38162000181565b9050919050565b600060ff82169050919050565b620001e281620001ca565b82525050565b6000602082019050620001ff6000830184620001d7565b92915050565b6080516131806200023d600039600081816105840152818161061201528181610759015281816107e7015261089701526131806000f3fe6080604052600436106101145760003560e01c806352d1902d116100a057806395d89b411161006457806395d89b4114610380578063a457c2d7146103ab578063a9059cbb146103e8578063dd62ed3e14610425578063f2fde38b1461046257610114565b806352d1902d146102bf57806370a08231146102ea578063715018a6146103275780638129fc1c1461033e5780638da5cb5b1461035557610114565b8063313ce567116100e7578063313ce567146101e95780633659cfe614610214578063395093511461023d57806340c10f191461027a5780634f1ef286146102a357610114565b806306fdde0314610119578063095ea7b31461014457806318160ddd1461018157806323b872dd146101ac575b600080fd5b34801561012557600080fd5b5061012e61048b565b60405161013b9190611c87565b60405180910390f35b34801561015057600080fd5b5061016b60048036038101906101669190611d51565b61051d565b6040516101789190611dac565b60405180910390f35b34801561018d57600080fd5b50610196610540565b6040516101a39190611dd6565b60405180910390f35b3480156101b857600080fd5b506101d360048036038101906101ce9190611df1565b61054a565b6040516101e09190611dac565b60405180910390f35b3480156101f557600080fd5b506101fe610579565b60405161020b9190611e60565b60405180910390f35b34801561022057600080fd5b5061023b60048036038101906102369190611e7b565b610582565b005b34801561024957600080fd5b50610264600480360381019061025f9190611d51565b61070a565b6040516102719190611dac565b60405180910390f35b34801561028657600080fd5b506102a1600480360381019061029c9190611d51565b610741565b005b6102bd60048036038101906102b89190611fdd565b610757565b005b3480156102cb57600080fd5b506102d4610893565b6040516102e19190612052565b60405180910390f35b3480156102f657600080fd5b50610311600480360381019061030c9190611e7b565b61094c565b60405161031e9190611dd6565b60405180910390f35b34801561033357600080fd5b5061033c610995565b005b34801561034a57600080fd5b506103536109a9565b005b34801561036157600080fd5b5061036a610b8e565b604051610377919061207c565b60405180910390f35b34801561038c57600080fd5b50610395610bb8565b6040516103a29190611c87565b60405180910390f35b3480156103b757600080fd5b506103d260048036038101906103cd9190611d51565b610c4a565b6040516103df9190611dac565b60405180910390f35b3480156103f457600080fd5b5061040f600480360381019061040a9190611d51565b610cc1565b60405161041c9190611dac565b60405180910390f35b34801561043157600080fd5b5061044c60048036038101906104479190612097565b610ce4565b6040516104599190611dd6565b60405180910390f35b34801561046e57600080fd5b5061048960048036038101906104849190611e7b565b610d6b565b005b60606036805461049a90612106565b80601f01602080910402602001604051908101604052809291908181526020018280546104c690612106565b80156105135780601f106104e857610100808354040283529160200191610513565b820191906000526020600020905b8154815290600101906020018083116104f657829003601f168201915b5050505050905090565b600080610528610dee565b9050610535818585610df6565b600191505092915050565b6000603554905090565b600080610555610dee565b9050610562858285610fbf565b61056d85858561104b565b60019150509392505050565b60006012905090565b7f000000000000000000000000000000000000000000000000000000000000000073ffffffffffffffffffffffffffffffffffffffff163073ffffffffffffffffffffffffffffffffffffffff1603610610576040517f08c379a0000000000000000000000000000000000000000000000000000000008152600401610607906121a9565b60405180910390fd5b7f000000000000000000000000000000000000000000000000000000000000000073ffffffffffffffffffffffffffffffffffffffff1661064f6112c4565b73ffffffffffffffffffffffffffffffffffffffff16146106a5576040517f08c379a000000000000000000000000000000000000000000000000000000000815260040161069c9061223b565b60405180910390fd5b6106ae8161131b565b61070781600067ffffffffffffffff8111156106cd576106cc611eb2565b5b6040519080825280601f01601f1916602001820160405280156106ff5781602001600182028036833780820191505090505b506000611326565b50565b600080610715610dee565b90506107368185856107278589610ce4565b610731919061228a565b610df6565b600191505092915050565b610749611494565b6107538282611512565b5050565b7f000000000000000000000000000000000000000000000000000000000000000073ffffffffffffffffffffffffffffffffffffffff163073ffffffffffffffffffffffffffffffffffffffff16036107e5576040517f08c379a00000000000000000000000000000000000000000000000000000000081526004016107dc906121a9565b60405180910390fd5b7f000000000000000000000000000000000000000000000000000000000000000073ffffffffffffffffffffffffffffffffffffffff166108246112c4565b73ffffffffffffffffffffffffffffffffffffffff161461087a576040517f08c379a00000000000000000000000000000000000000000000000000000000081526004016108719061223b565b60405180910390fd5b6108838261131b565b61088f82826001611326565b5050565b60007f000000000000000000000000000000000000000000000000000000000000000073ffffffffffffffffffffffffffffffffffffffff163073ffffffffffffffffffffffffffffffffffffffff1614610923576040517f08c379a000000000000000000000000000000000000000000000000000000000815260040161091a90612330565b60405180910390fd5b7f360894a13ba1a3210667c828492db98dca3e2076cc3735a920a3ca505d382bbc60001b905090565b6000603360008373ffffffffffffffffffffffffffffffffffffffff1673ffffffffffffffffffffffffffffffffffffffff168152602001908152602001600020549050919050565b61099d611494565b6109a76000611669565b565b60008060019054906101000a900460ff161590508080156109da5750600160008054906101000a900460ff1660ff16105b80610a0757506109e93061172f565b158015610a065750600160008054906101000a900460ff1660ff16145b5b610a46576040517f08c379a0000000000000000000000000000000000000000000000000000000008152600401610a3d906123c2565b60405180910390fd5b60016000806101000a81548160ff021916908360ff1602179055508015610a83576001600060016101000a81548160ff0219169083151502179055505b610af76040518060400160405280600881526020017f476f64546f6b656e0000000000000000000000000000000000000000000000008152506040518060400160405280600381526020017f474f440000000000000000000000000000000000000000000000000000000000815250611752565b610aff6117af565b610b07611808565b610b3233610b13610579565b600a610b1f9190612515565b620f4240610b2d9190612560565b611512565b8015610b8b5760008060016101000a81548160ff0219169083151502179055507f7f26b83ff96e1f2b6a682f133852f6798a09c465da95921460cefb38474024986001604051610b8291906125e7565b60405180910390a15b50565b6000606560009054906101000a900473ffffffffffffffffffffffffffffffffffffffff16905090565b606060378054610bc790612106565b80601f0160208091040260200160405190810160405280929190818152602001828054610bf390612106565b8015610c405780601f10610c1557610100808354040283529160200191610c40565b820191906000526020600020905b815481529060010190602001808311610c2357829003601f168201915b5050505050905090565b600080610c55610dee565b90506000610c638286610ce4565b905083811015610ca8576040517f08c379a0000000000000000000000000000000000000000000000000000000008152600401610c9f90612674565b60405180910390fd5b610cb58286868403610df6565b60019250505092915050565b600080610ccc610dee565b9050610cd981858561104b565b600191505092915050565b6000603460008473ffffffffffffffffffffffffffffffffffffffff1673ffffffffffffffffffffffffffffffffffffffff16815260200190815260200160002060008373ffffffffffffffffffffffffffffffffffffffff1673ffffffffffffffffffffffffffffffffffffffff16815260200190815260200160002054905092915050565b610d73611494565b600073ffffffffffffffffffffffffffffffffffffffff168173ffffffffffffffffffffffffffffffffffffffff1603610de2576040517f08c379a0000000000000000000000000000000000000000000000000000000008152600401610dd990612706565b60405180910390fd5b610deb81611669565b50565b600033905090565b600073ffffffffffffffffffffffffffffffffffffffff168373ffffffffffffffffffffffffffffffffffffffff1603610e65576040517f08c379a0000000000000000000000000000000000000000000000000000000008152600401610e5c90612798565b60405180910390fd5b600073ffffffffffffffffffffffffffffffffffffffff168273ffffffffffffffffffffffffffffffffffffffff1603610ed4576040517f08c379a0000000000000000000000000000000000000000000000000000000008152600401610ecb9061282a565b60405180910390fd5b80603460008573ffffffffffffffffffffffffffffffffffffffff1673ffffffffffffffffffffffffffffffffffffffff16815260200190815260200160002060008473ffffffffffffffffffffffffffffffffffffffff1673ffffffffffffffffffffffffffffffffffffffff168152602001908152602001600020819055508173ffffffffffffffffffffffffffffffffffffffff168373ffffffffffffffffffffffffffffffffffffffff167f8c5be1e5ebec7d5bd14f71427d1e84f3dd0314c0f7b2291e5b200ac8c7c3b92583604051610fb29190611dd6565b60405180910390a3505050565b6000610fcb8484610ce4565b90507fffffffffffffffffffffffffffffffffffffffffffffffffffffffffffffffff81146110455781811015611037576040517f08c379a000000000000000000000000000000000000000000000000000000000815260040161102e90612896565b60405180910390fd5b6110448484848403610df6565b5b50505050565b600073ffffffffffffffffffffffffffffffffffffffff168373ffffffffffffffffffffffffffffffffffffffff16036110ba576040517f08c379a00000000000000000000000000000000000000000000000000000000081526004016110b190612928565b60405180910390fd5b600073ffffffffffffffffffffffffffffffffffffffff168273ffffffffffffffffffffffffffffffffffffffff1603611129576040517f08c379a0000000000000000000000000000000000000000000000000000000008152600401611120906129ba565b60405180910390fd5b611134838383611859565b6000603360008573ffffffffffffffffffffffffffffffffffffffff1673ffffffffffffffffffffffffffffffffffffffff168152602001908152602001600020549050818110156111bb576040517f08c379a00000000000000000000000000000000000000000000000000000000081526004016111b290612a4c565b60405180910390fd5b818103603360008673ffffffffffffffffffffffffffffffffffffffff1673ffffffffffffffffffffffffffffffffffffffff1681526020019081526020016000208190555081603360008573ffffffffffffffffffffffffffffffffffffffff1673ffffffffffffffffffffffffffffffffffffffff168152602001908152602001600020600082825401925050819055508273ffffffffffffffffffffffffffffffffffffffff168473ffffffffffffffffffffffffffffffffffffffff167fddf252ad1be2c89b69c2b068fc378daa952ba7f163c4a11628f55a4df523b3ef846040516112ab9190611dd6565b60405180910390a36112be84848461185e565b50505050565b60006112f27f360894a13ba1a3210667c828492db98dca3e2076cc3735a920a3ca505d382bbc60001b611863565b60000160009054906101000a900473ffffffffffffffffffffffffffffffffffffffff16905090565b611323611494565b50565b6113527f4910fdfa16fed3260ed0e7147f7cc6da11a60208b5b9406d12a635614ffd914360001b61186d565b60000160009054906101000a900460ff16156113765761137183611877565b61148f565b8273ffffffffffffffffffffffffffffffffffffffff166352d1902d6040518163ffffffff1660e01b8152600401602060405180830381865afa9250505080156113de57506040513d601f19601f820116820180604052508101906113db9190612a98565b60015b61141d576040517f08c379a000000000000000000000000000000000000000000000000000000000815260040161141490612b37565b60405180910390fd5b7f360894a13ba1a3210667c828492db98dca3e2076cc3735a920a3ca505d382bbc60001b8114611482576040517f08c379a000000000000000000000000000000000000000000000000000000000815260040161147990612bc9565b60405180910390fd5b5061148e838383611930565b5b505050565b61149c610dee565b73ffffffffffffffffffffffffffffffffffffffff166114ba610b8e565b73ffffffffffffffffffffffffffffffffffffffff1614611510576040517f08c379a000000000000000000000000000000000000000000000000000000000815260040161150790612c35565b60405180910390fd5b565b600073ffffffffffffffffffffffffffffffffffffffff168273ffffffffffffffffffffffffffffffffffffffff1603611581576040517f08c379a000000000000000000000000000000000000000000000000000000000815260040161157890612ca1565b60405180910390fd5b61158d60008383611859565b806035600082825461159f919061228a565b9250508190555080603360008473ffffffffffffffffffffffffffffffffffffffff1673ffffffffffffffffffffffffffffffffffffffff168152602001908152602001600020600082825401925050819055508173ffffffffffffffffffffffffffffffffffffffff16600073ffffffffffffffffffffffffffffffffffffffff167fddf252ad1be2c89b69c2b068fc378daa952ba7f163c4a11628f55a4df523b3ef836040516116519190611dd6565b60405180910390a36116656000838361185e565b5050565b6000606560009054906101000a900473ffffffffffffffffffffffffffffffffffffffff16905081606560006101000a81548173ffffffffffffffffffffffffffffffffffffffff021916908373ffffffffffffffffffffffffffffffffffffffff1602179055508173ffffffffffffffffffffffffffffffffffffffff168173ffffffffffffffffffffffffffffffffffffffff167f8be0079c531659141344cd1fd0a4f28419497f9722a3daafe3b4186f6b6457e060405160405180910390a35050565b6000808273ffffffffffffffffffffffffffffffffffffffff163b119050919050565b600060019054906101000a900460ff166117a1576040517f08c379a000000000000000000000000000000000000000000000000000000000815260040161179890612d33565b60405180910390fd5b6117ab828261195c565b5050565b600060019054906101000a900460ff166117fe576040517f08c379a00000000000000000000000000000000000000000000000000000000081526004016117f590612d33565b60405180910390fd5b6118066119cf565b565b600060019054906101000a900460ff16611857576040517f08c379a000000000000000000000000000000000000000000000000000000000815260040161184e90612d33565b60405180910390fd5b565b505050565b505050565b6000819050919050565b6000819050919050565b6118808161172f565b6118bf576040517f08c379a00000000000000000000000000000000000000000000000000000000081526004016118b690612dc5565b60405180910390fd5b806118ec7f360894a13ba1a3210667c828492db98dca3e2076cc3735a920a3ca505d382bbc60001b611863565b60000160006101000a81548173ffffffffffffffffffffffffffffffffffffffff021916908373ffffffffffffffffffffffffffffffffffffffff16021790555050565b61193983611a30565b6000825111806119465750805b15611957576119558383611a7f565b505b505050565b600060019054906101000a900460ff166119ab576040517f08c379a00000000000000000000000000000000000000000000000000000000081526004016119a290612d33565b60405180910390fd5b81603690816119ba9190612f87565b5080603790816119ca9190612f87565b505050565b600060019054906101000a900460ff16611a1e576040517f08c379a0000000000000000000000000000000000000000000000000000000008152600401611a1590612d33565b60405180910390fd5b611a2e611a29610dee565b611669565b565b611a3981611877565b8073ffffffffffffffffffffffffffffffffffffffff167fbc7cd75a20ee27fd9adebab32041f755214dbc6bffa90cc0225b39da2e5c2d3b60405160405180910390a250565b6060611aa4838360405180606001604052806027815260200161312460279139611aac565b905092915050565b60606000808573ffffffffffffffffffffffffffffffffffffffff1685604051611ad691906130a0565b600060405180830381855af49150503d8060008114611b11576040519150601f19603f3d011682016040523d82523d6000602084013e611b16565b606091505b5091509150611b2786838387611b32565b925050509392505050565b60608315611b94576000835103611b8c57611b4c8561172f565b611b8b576040517f08c379a0000000000000000000000000000000000000000000000000000000008152600401611b8290613103565b60405180910390fd5b5b829050611b9f565b611b9e8383611ba7565b5b949350505050565b600082511115611bba5781518083602001fd5b806040517f08c379a0000000000000000000000000000000000000000000000000000000008152600401611bee9190611c87565b60405180910390fd5b600081519050919050565b600082825260208201905092915050565b60005b83811015611c31578082015181840152602081019050611c16565b60008484015250505050565b6000601f19601f8301169050919050565b6000611c5982611bf7565b611c638185611c02565b9350611c73818560208601611c13565b611c7c81611c3d565b840191505092915050565b60006020820190508181036000830152611ca18184611c4e565b905092915050565b6000604051905090565b600080fd5b600080fd5b600073ffffffffffffffffffffffffffffffffffffffff82169050919050565b6000611ce882611cbd565b9050919050565b611cf881611cdd565b8114611d0357600080fd5b50565b600081359050611d1581611cef565b92915050565b6000819050919050565b611d2e81611d1b565b8114611d3957600080fd5b50565b600081359050611d4b81611d25565b92915050565b60008060408385031215611d6857611d67611cb3565b5b6000611d7685828601611d06565b9250506020611d8785828601611d3c565b9150509250929050565b60008115159050919050565b611da681611d91565b82525050565b6000602082019050611dc16000830184611d9d565b92915050565b611dd081611d1b565b82525050565b6000602082019050611deb6000830184611dc7565b92915050565b600080600060608486031215611e0a57611e09611cb3565b5b6000611e1886828701611d06565b9350506020611e2986828701611d06565b9250506040611e3a86828701611d3c565b9150509250925092565b600060ff82169050919050565b611e5a81611e44565b82525050565b6000602082019050611e756000830184611e51565b92915050565b600060208284031215611e9157611e90611cb3565b5b6000611e9f84828501611d06565b91505092915050565b600080fd5b600080fd5b7f4e487b7100000000000000000000000000000000000000000000000000000000600052604160045260246000fd5b611eea82611c3d565b810181811067ffffffffffffffff82111715611f0957611f08611eb2565b5b80604052505050565b6000611f1c611ca9565b9050611f288282611ee1565b919050565b600067ffffffffffffffff821115611f4857611f47611eb2565b5b611f5182611c3d565b9050602081019050919050565b82818337600083830152505050565b6000611f80611f7b84611f2d565b611f12565b905082815260208101848484011115611f9c57611f9b611ead565b5b611fa7848285611f5e565b509392505050565b600082601f830112611fc457611fc3611ea8565b5b8135611fd4848260208601611f6d565b91505092915050565b60008060408385031215611ff457611ff3611cb3565b5b600061200285828601611d06565b925050602083013567ffffffffffffffff81111561202357612022611cb8565b5b61202f85828601611faf565b9150509250929050565b6000819050919050565b61204c81612039565b82525050565b60006020820190506120676000830184612043565b92915050565b61207681611cdd565b82525050565b6000602082019050612091600083018461206d565b92915050565b600080604083850312156120ae576120ad611cb3565b5b60006120bc85828601611d06565b92505060206120cd85828601611d06565b9150509250929050565b7f4e487b7100000000000000000000000000000000000000000000000000000000600052602260045260246000fd5b6000600282049050600182168061211e57607f821691505b602082108103612131576121306120d7565b5b50919050565b7f46756e6374696f6e206d7573742062652063616c6c6564207468726f7567682060008201527f64656c656761746563616c6c0000000000000000000000000000000000000000602082015250565b6000612193602c83611c02565b915061219e82612137565b604082019050919050565b600060208201905081810360008301526121c281612186565b9050919050565b7f46756e6374696f6e206d7573742062652063616c6c6564207468726f7567682060008201527f6163746976652070726f78790000000000000000000000000000000000000000602082015250565b6000612225602c83611c02565b9150612230826121c9565b604082019050919050565b6000602082019050818103600083015261225481612218565b9050919050565b7f4e487b7100000000000000000000000000000000000000000000000000000000600052601160045260246000fd5b600061229582611d1b565b91506122a083611d1b565b92508282019050808211156122b8576122b761225b565b5b92915050565b7f555550535570677261646561626c653a206d757374206e6f742062652063616c60008201527f6c6564207468726f7567682064656c656761746563616c6c0000000000000000602082015250565b600061231a603883611c02565b9150612325826122be565b604082019050919050565b600060208201905081810360008301526123498161230d565b9050919050565b7f496e697469616c697a61626c653a20636f6e747261637420697320616c72656160008201527f647920696e697469616c697a6564000000000000000000000000000000000000602082015250565b60006123ac602e83611c02565b91506123b782612350565b604082019050919050565b600060208201905081810360008301526123db8161239f565b9050919050565b60008160011c9050919050565b6000808291508390505b6001851115612439578086048111156124155761241461225b565b5b60018516156124245780820291505b8081029050612432856123e2565b94506123f9565b94509492505050565b600082612452576001905061250e565b81612460576000905061250e565b81600181146124765760028114612480576124af565b600191505061250e565b60ff8411156124925761249161225b565b5b8360020a9150848211156124a9576124a861225b565b5b5061250e565b5060208310610133831016604e8410600b84101617156124e45782820a9050838111156124df576124de61225b565b5b61250e565b6124f184848460016123ef565b925090508184048111156125085761250761225b565b5b81810290505b9392505050565b600061252082611d1b565b915061252b83611e44565b92506125587fffffffffffffffffffffffffffffffffffffffffffffffffffffffffffffffff8484612442565b905092915050565b600061256b82611d1b565b915061257683611d1b565b925082820261258481611d1b565b9150828204841483151761259b5761259a61225b565b5b5092915050565b6000819050919050565b6000819050919050565b60006125d16125cc6125c7846125a2565b6125ac565b611e44565b9050919050565b6125e1816125b6565b82525050565b60006020820190506125fc60008301846125d8565b92915050565b7f45524332303a2064656372656173656420616c6c6f77616e63652062656c6f7760008201527f207a65726f000000000000000000000000000000000000000000000000000000602082015250565b600061265e602583611c02565b915061266982612602565b604082019050919050565b6000602082019050818103600083015261268d81612651565b9050919050565b7f4f776e61626c653a206e6577206f776e657220697320746865207a65726f206160008201527f6464726573730000000000000000000000000000000000000000000000000000602082015250565b60006126f0602683611c02565b91506126fb82612694565b604082019050919050565b6000602082019050818103600083015261271f816126e3565b9050919050565b7f45524332303a20617070726f76652066726f6d20746865207a65726f2061646460008201527f7265737300000000000000000000000000000000000000000000000000000000602082015250565b6000612782602483611c02565b915061278d82612726565b604082019050919050565b600060208201905081810360008301526127b181612775565b9050919050565b7f45524332303a20617070726f766520746f20746865207a65726f20616464726560008201527f7373000000000000000000000000000000000000000000000000000000000000602082015250565b6000612814602283611c02565b915061281f826127b8565b604082019050919050565b6000602082019050818103600083015261284381612807565b9050919050565b7f45524332303a20696e73756666696369656e7420616c6c6f77616e6365000000600082015250565b6000612880601d83611c02565b915061288b8261284a565b602082019050919050565b600060208201905081810360008301526128af81612873565b9050919050565b7f45524332303a207472616e736665722066726f6d20746865207a65726f20616460008201527f6472657373000000000000000000000000000000000000000000000000000000602082015250565b6000612912602583611c02565b915061291d826128b6565b604082019050919050565b6000602082019050818103600083015261294181612905565b9050919050565b7f45524332303a207472616e7366657220746f20746865207a65726f206164647260008201527f6573730000000000000000000000000000000000000000000000000000000000602082015250565b60006129a4602383611c02565b91506129af82612948565b604082019050919050565b600060208201905081810360008301526129d381612997565b9050919050565b7f45524332303a207472616e7366657220616d6f756e742065786365656473206260008201527f616c616e63650000000000000000000000000000000000000000000000000000602082015250565b6000612a36602683611c02565b9150612a41826129da565b604082019050919050565b60006020820190508181036000830152612a6581612a29565b9050919050565b612a7581612039565b8114612a8057600080fd5b50565b600081519050612a9281612a6c565b92915050565b600060208284031215612aae57612aad611cb3565b5b6000612abc84828501612a83565b91505092915050565b7f45524331393637557067726164653a206e657720696d706c656d656e7461746960008201527f6f6e206973206e6f742055555053000000000000000000000000000000000000602082015250565b6000612b21602e83611c02565b9150612b2c82612ac5565b604082019050919050565b60006020820190508181036000830152612b5081612b14565b9050919050565b7f45524331393637557067726164653a20756e737570706f727465642070726f7860008201527f6961626c65555549440000000000000000000000000000000000000000000000602082015250565b6000612bb3602983611c02565b9150612bbe82612b57565b604082019050919050565b60006020820190508181036000830152612be281612ba6565b9050919050565b7f4f776e61626c653a2063616c6c6572206973206e6f7420746865206f776e6572600082015250565b6000612c1f602083611c02565b9150612c2a82612be9565b602082019050919050565b60006020820190508181036000830152612c4e81612c12565b9050919050565b7f45524332303a206d696e7420746f20746865207a65726f206164647265737300600082015250565b6000612c8b601f83611c02565b9150612c9682612c55565b602082019050919050565b60006020820190508181036000830152612cba81612c7e565b9050919050565b7f496e697469616c697a61626c653a20636f6e7472616374206973206e6f74206960008201527f6e697469616c697a696e67000000000000000000000000000000000000000000602082015250565b6000612d1d602b83611c02565b9150612d2882612cc1565b604082019050919050565b60006020820190508181036000830152612d4c81612d10565b9050919050565b7f455243313936373a206e657720696d706c656d656e746174696f6e206973206e60008201527f6f74206120636f6e747261637400000000000000000000000000000000000000602082015250565b6000612daf602d83611c02565b9150612dba82612d53565b604082019050919050565b60006020820190508181036000830152612dde81612da2565b9050919050565b60008190508160005260206000209050919050565b60006020601f8301049050919050565b600082821b905092915050565b600060088302612e477fffffffffffffffffffffffffffffffffffffffffffffffffffffffffffffffff82612e0a565b612e518683612e0a565b95508019841693508086168417925050509392505050565b6000612e84612e7f612e7a84611d1b565b6125ac565b611d1b565b9050919050565b6000819050919050565b612e9e83612e69565b612eb2612eaa82612e8b565b848454612e17565b825550505050565b600090565b612ec7612eba565b612ed2818484612e95565b505050565b5b81811015612ef657612eeb600082612ebf565b600181019050612ed8565b5050565b601f821115612f3b57612f0c81612de5565b612f1584612dfa565b81016020851015612f24578190505b612f38612f3085612dfa565b830182612ed7565b50505b505050565b600082821c905092915050565b6000612f5e60001984600802612f40565b1980831691505092915050565b6000612f778383612f4d565b9150826002028217905092915050565b612f9082611bf7565b67ffffffffffffffff811115612fa957612fa8611eb2565b5b612fb38254612106565b612fbe828285612efa565b600060209050601f831160018114612ff15760008415612fdf578287015190505b612fe98582612f6b565b865550613051565b601f198416612fff86612de5565b60005b8281101561302757848901518255600182019150602085019450602081019050613002565b868310156130445784890151613040601f891682612f4d565b8355505b6001600288020188555050505b505050505050565b600081519050919050565b600081905092915050565b600061307a82613059565b6130848185613064565b9350613094818560208601611c13565b80840191505092915050565b60006130ac828461306f565b915081905092915050565b7f416464726573733a2063616c6c20746f206e6f6e2d636f6e7472616374000000600082015250565b60006130ed601d83611c02565b91506130f8826130b7565b602082019050919050565b6000602082019050818103600083015261311c816130e0565b905091905056fe416464726573733a206c6f772d6c6576656c2064656c65676174652063616c6c206661696c6564a264697066735822122091bf5f71f62467edccecbab071aa620f85cfe207f39bb480085b0b93cbc7540964736f6c63430008140033",
  "linkReferences": {},
  "deployedLinkReferences": {}
}