{
  "_format": "hh-sol-artifact-1",
  "contractName": "Staking",
  "sourceName": "contracts/Staking.sol",
  "abi": [
    {
      "inputs": [
        {
          "internalType": "address",
          "name": "tokenAddress",
          "type": "address"
        }
      ],
      "stateMutability": "nonpayable",
      "type": "constructor"
    },
    {
      "anonymous": false,
      "inputs": [
        {
          "indexed": true,
          "internalType": "address",
          "name": "user",
          "type": "address"
        },
        {
          "indexed": false,
          "internalType": "uint256",
          "name": "amount",
          "type": "uint256"
        },
        {
          "indexed": false,
          "internalType": "uint256",
          "name": "timestamp",
          "type": "uint256"
        }
      ],
      "name": "Staked",
      "type": "event"
    },
    {
      "anonymous": false,
      "inputs": [
        {
          "indexed": true,
          "internalType": "address",
          "name": "user",
          "type": "address"
        },
        {
          "indexed": false,
          "internalType": "uint256",
          "name": "amount",
          "type": "uint256"
        },
        {
          "indexed": false,
          "internalType": "uint256",
          "name": "timestamp",
          "type": "uint256"
        }
      ],
      "name": "Unstaked",
      "type": "event"
    },
    {
      "inputs": [
        {
          "internalType": "address",
          "name": "",
          "type": "address"
        }
      ],
      "name": "balances",
      "outputs": [
        {
          "internalType": "uint256",
          "name": "",
          "type": "uint256"
        }
      ],
      "stateMutability": "view",
      "type": "function"
    },
    {
      "inputs": [
        {
          "internalType": "uint256",
          "name": "amount",
          "type": "uint256"
        }
      ],
      "name": "stake",
      "outputs": [],
      "stateMutability": "nonpayable",
      "type": "function"
    },
    {
      "inputs": [
        {
          "internalType": "address",
          "name": "",
          "type": "address"
        }
      ],
      "name": "stakeTimestamps",
      "outputs": [
        {
          "internalType": "uint256",
          "name": "",
          "type": "uint256"
        }
      ],
      "stateMutability": "view",
      "type": "function"
    },
    {
      "inputs": [],
      "name": "token",
      "outputs": [
        {
          "internalType": "contract IToken",
          "name": "",
          "type": "address"
        }
      ],
      "stateMutability": "view",
      "type": "function"
    },
    {
      "inputs": [],
      "name": "unstake",
      "outputs": [],
      "stateMutability": "nonpayable",
      "type": "function"
    }
  ],
  "bytecode": "0x608060405234801561001057600080fd5b50604051610bec380380610bec833981810160405281019061003291906100e4565b600160008190555080600160006101000a81548173ffffffffffffffffffffffffffffffffffffffff021916908373ffffffffffffffffffffffffffffffffffffffff16021790555050610111565b600080fd5b600073ffffffffffffffffffffffffffffffffffffffff82169050919050565b60006100b182610086565b9050919050565b6100c1816100a6565b81146100cc57600080fd5b50565b6000815190506100de816100b8565b92915050565b6000602082840312156100fa576100f9610081565b5b6000610108848285016100cf565b91505092915050565b610acc806101206000396000f3fe608060405234801561001057600080fd5b50600436106100575760003560e01c806327e235e31461005c5780632def66201461008c57806399f853a514610096578063a694fc3a146100c6578063fc0c546a146100e2575b600080fd5b61007660048036038101906100719190610641565b610100565b6040516100839190610687565b60405180910390f35b610094610118565b005b6100b060048036038101906100ab9190610641565b610326565b6040516100bd9190610687565b60405180910390f35b6100e060048036038101906100db91906106ce565b61033e565b005b6100ea61055f565b6040516100f7919061075a565b60405180910390f35b60026020528060005260406000206000915090505481565b610120610585565b6000600260003373ffffffffffffffffffffffffffffffffffffffff1673ffffffffffffffffffffffffffffffffffffffff168152602001908152602001600020549050600081116101a7576040517f08c379a000000000000000000000000000000000000000000000000000000000815260040161019e906107d2565b60405180910390fd5b6000600260003373ffffffffffffffffffffffffffffffffffffffff1673ffffffffffffffffffffffffffffffffffffffff16815260200190815260200160002081905550600160009054906101000a900473ffffffffffffffffffffffffffffffffffffffff1673ffffffffffffffffffffffffffffffffffffffff1663a9059cbb33836040518363ffffffff1660e01b8152600401610249929190610801565b6020604051808303816000875af1158015610268573d6000803e3d6000fd5b505050506040513d601f19601f8201168201806040525081019061028c9190610862565b6102cb576040517f08c379a00000000000000000000000000000000000000000000000000000000081526004016102c2906108db565b60405180910390fd5b3373ffffffffffffffffffffffffffffffffffffffff167f7fc4727e062e336010f2c282598ef5f14facb3de68cf8195c2f23e1454b2b74e82426040516103139291906108fb565b60405180910390a2506103246105d4565b565b60036020528060005260406000206000915090505481565b610346610585565b60008111610389576040517f08c379a000000000000000000000000000000000000000000000000000000000815260040161038090610970565b60405180910390fd5b600160009054906101000a900473ffffffffffffffffffffffffffffffffffffffff1673ffffffffffffffffffffffffffffffffffffffff166323b872dd3330846040518463ffffffff1660e01b81526004016103e893929190610990565b6020604051808303816000875af1158015610407573d6000803e3d6000fd5b505050506040513d601f19601f8201168201806040525081019061042b9190610862565b61046a576040517f08c379a0000000000000000000000000000000000000000000000000000000008152600401610461906108db565b60405180910390fd5b80600260003373ffffffffffffffffffffffffffffffffffffffff1673ffffffffffffffffffffffffffffffffffffffff16815260200190815260200160002060008282546104b991906109f6565b9250508190555042600360003373ffffffffffffffffffffffffffffffffffffffff1673ffffffffffffffffffffffffffffffffffffffff168152602001908152602001600020819055503373ffffffffffffffffffffffffffffffffffffffff167f1449c6dd7851abc30abf37f57715f492010519147cc2652fbc38202c18a6ee90824260405161054c9291906108fb565b60405180910390a261055c6105d4565b50565b600160009054906101000a900473ffffffffffffffffffffffffffffffffffffffff1681565b6002600054036105ca576040517f08c379a00000000000000000000000000000000000000000000000000000000081526004016105c190610a76565b60405180910390fd5b6002600081905550565b6001600081905550565b600080fd5b600073ffffffffffffffffffffffffffffffffffffffff82169050919050565b600061060e826105e3565b9050919050565b61061e81610603565b811461062957600080fd5b50565b60008135905061063b81610615565b92915050565b600060208284031215610657576106566105de565b5b60006106658482850161062c565b91505092915050565b6000819050919050565b6106818161066e565b82525050565b600060208201905061069c6000830184610678565b92915050565b6106ab8161066e565b81146106b657600080fd5b50565b6000813590506106c8816106a2565b92915050565b6000602082840312156106e4576106e36105de565b5b60006106f2848285016106b9565b91505092915050565b6000819050919050565b600061072061071b610716846105e3565b6106fb565b6105e3565b9050919050565b600061073282610705565b9050919050565b600061074482610727565b9050919050565b61075481610739565b82525050565b600060208201905061076f600083018461074b565b92915050565b600082825260208201905092915050565b7f4e6f7468696e6720746f20756e7374616b650000000000000000000000000000600082015250565b60006107bc601283610775565b91506107c782610786565b602082019050919050565b600060208201905081810360008301526107eb816107af565b9050919050565b6107fb81610603565b82525050565b600060408201905061081660008301856107f2565b6108236020830184610678565b9392505050565b60008115159050919050565b61083f8161082a565b811461084a57600080fd5b50565b60008151905061085c81610836565b92915050565b600060208284031215610878576108776105de565b5b60006108868482850161084d565b91505092915050565b7f546f6b656e207472616e73666572206661696c65640000000000000000000000600082015250565b60006108c5601583610775565b91506108d08261088f565b602082019050919050565b600060208201905081810360008301526108f4816108b8565b9050919050565b60006040820190506109106000830185610678565b61091d6020830184610678565b9392505050565b7f416d6f756e74206d757374206265203e20300000000000000000000000000000600082015250565b600061095a601283610775565b915061096582610924565b602082019050919050565b600060208201905081810360008301526109898161094d565b9050919050565b60006060820190506109a560008301866107f2565b6109b260208301856107f2565b6109bf6040830184610678565b949350505050565b7f4e487b7100000000000000000000000000000000000000000000000000000000600052601160045260246000fd5b6000610a018261066e565b9150610a0c8361066e565b9250828201905080821115610a2457610a236109c7565b5b92915050565b7f5265656e7472616e637947756172643a207265656e7472616e742063616c6c00600082015250565b6000610a60601f83610775565b9150610a6b82610a2a565b602082019050919050565b60006020820190508181036000830152610a8f81610a53565b905091905056fea2646970667358221220bd8879a6164e40041c460800e2a4a619b8ec88c871e9385023a4209263f5ccda64736f6c63430008140033",
  "linkReferences": {},
  "deployedLinkReferences": {}
}